{
  "contractName": "CappedToken",
  "abi": [
    {
      "constant": true,
      "inputs": [],
      "name": "mintingFinished",
      "outputs": [
        {
          "name": "",
          "type": "bool"
        }
      ],
      "payable": false,
      "stateMutability": "view",
      "type": "function"
    },
    {
      "constant": true,
      "inputs": [],
      "name": "name",
      "outputs": [
        {
          "name": "_name",
          "type": "string"
        }
      ],
      "payable": false,
      "stateMutability": "view",
      "type": "function"
    },
    {
      "constant": true,
      "inputs": [],
      "name": "totalSupply",
      "outputs": [
        {
          "name": "_totalSupply",
          "type": "uint256"
        }
      ],
      "payable": false,
      "stateMutability": "view",
      "type": "function"
    },
    {
      "constant": true,
      "inputs": [],
      "name": "decimals",
      "outputs": [
        {
          "name": "_decimals",
          "type": "uint8"
        }
      ],
      "payable": false,
      "stateMutability": "view",
      "type": "function"
    },
    {
      "constant": true,
      "inputs": [],
      "name": "cap",
      "outputs": [
        {
          "name": "",
          "type": "uint256"
        }
      ],
      "payable": false,
      "stateMutability": "view",
      "type": "function"
    },
    {
      "constant": true,
      "inputs": [
        {
          "name": "_owner",
          "type": "address"
        }
      ],
      "name": "balanceOf",
      "outputs": [
        {
          "name": "balance",
          "type": "uint256"
        }
      ],
      "payable": false,
      "stateMutability": "view",
      "type": "function"
    },
    {
      "constant": false,
      "inputs": [],
      "name": "renounceOwnership",
      "outputs": [],
      "payable": false,
      "stateMutability": "nonpayable",
      "type": "function"
    },
    {
      "constant": false,
      "inputs": [],
      "name": "finishMinting",
      "outputs": [
        {
          "name": "",
          "type": "bool"
        }
      ],
      "payable": false,
      "stateMutability": "nonpayable",
      "type": "function"
    },
    {
      "constant": true,
      "inputs": [],
      "name": "owner",
      "outputs": [
        {
          "name": "",
          "type": "address"
        }
      ],
      "payable": false,
      "stateMutability": "view",
      "type": "function"
    },
    {
      "constant": true,
      "inputs": [],
      "name": "symbol",
      "outputs": [
        {
          "name": "_symbol",
          "type": "string"
        }
      ],
      "payable": false,
      "stateMutability": "view",
      "type": "function"
    },
    {
      "constant": false,
      "inputs": [
        {
          "name": "_to",
          "type": "address"
        },
        {
          "name": "_value",
          "type": "uint256"
        }
      ],
      "name": "transfer",
      "outputs": [
        {
          "name": "success",
          "type": "bool"
        }
      ],
      "payable": false,
      "stateMutability": "nonpayable",
      "type": "function"
    },
    {
      "constant": false,
      "inputs": [
        {
          "name": "_to",
          "type": "address"
        },
        {
          "name": "_value",
          "type": "uint256"
        },
        {
          "name": "_data",
          "type": "bytes"
        }
      ],
      "name": "transfer",
      "outputs": [
        {
          "name": "success",
          "type": "bool"
        }
      ],
      "payable": false,
      "stateMutability": "nonpayable",
      "type": "function"
    },
    {
      "constant": false,
      "inputs": [
        {
          "name": "_newOwner",
          "type": "address"
        }
      ],
      "name": "transferOwnership",
      "outputs": [],
      "payable": false,
      "stateMutability": "nonpayable",
      "type": "function"
    },
    {
      "constant": false,
      "inputs": [
        {
          "name": "_to",
          "type": "address"
        },
        {
          "name": "_value",
          "type": "uint256"
        },
        {
          "name": "_data",
          "type": "bytes"
        },
        {
          "name": "_custom_fallback",
          "type": "string"
        }
      ],
      "name": "transfer",
      "outputs": [
        {
          "name": "success",
          "type": "bool"
        }
      ],
      "payable": false,
      "stateMutability": "nonpayable",
      "type": "function"
    },
    {
      "inputs": [
        {
          "name": "_cap",
          "type": "uint256"
        }
      ],
      "payable": false,
      "stateMutability": "nonpayable",
      "type": "constructor"
    },
    {
      "anonymous": false,
      "inputs": [
        {
          "indexed": true,
          "name": "to",
          "type": "address"
        },
        {
          "indexed": false,
          "name": "amount",
          "type": "uint256"
        }
      ],
      "name": "Mint",
      "type": "event"
    },
    {
      "anonymous": false,
      "inputs": [],
      "name": "MintFinished",
      "type": "event"
    },
    {
      "anonymous": false,
      "inputs": [
        {
          "indexed": true,
          "name": "previousOwner",
          "type": "address"
        }
      ],
      "name": "OwnershipRenounced",
      "type": "event"
    },
    {
      "anonymous": false,
      "inputs": [
        {
          "indexed": true,
          "name": "previousOwner",
          "type": "address"
        },
        {
          "indexed": true,
          "name": "newOwner",
          "type": "address"
        }
      ],
      "name": "OwnershipTransferred",
      "type": "event"
    },
    {
      "anonymous": false,
      "inputs": [
        {
          "indexed": true,
          "name": "from",
          "type": "address"
        },
        {
          "indexed": true,
          "name": "to",
          "type": "address"
        },
        {
          "indexed": false,
          "name": "value",
          "type": "uint256"
        },
        {
          "indexed": true,
          "name": "data",
          "type": "bytes"
        }
      ],
      "name": "Transfer",
      "type": "event"
    },
    {
      "constant": false,
      "inputs": [
        {
          "name": "_to",
          "type": "address"
        },
        {
          "name": "_amount",
          "type": "uint256"
        }
      ],
      "name": "mint",
      "outputs": [
        {
          "name": "",
          "type": "bool"
        }
      ],
      "payable": false,
      "stateMutability": "nonpayable",
      "type": "function"
    }
  ],
  "bytecode": "0x60806040526006805460a060020a60ff021916905534801561002057600080fd5b50604051602080610ee0833981016040525160068054600160a060020a031916331790556000811161005157600080fd5b600755610e7d806100636000396000f3006080604052600436106100c15763ffffffff60e060020a60003504166305d2035b81146100c657806306fdde03146100ef57806318160ddd14610179578063313ce567146101a0578063355274ea146101cb57806340c10f19146101e057806370a0823114610204578063715018a6146102255780637d64bcb41461023c5780638da5cb5b1461025157806395d89b4114610282578063a9059cbb14610297578063be45fd62146102bb578063f2fde38b14610324578063f6368f8a14610345575b600080fd5b3480156100d257600080fd5b506100db6103ec565b604080519115158252519081900360200190f35b3480156100fb57600080fd5b506101046103fc565b6040805160208082528351818301528351919283929083019185019080838360005b8381101561013e578181015183820152602001610126565b50505050905090810190601f16801561016b5780820380516001836020036101000a031916815260200191505b509250505060405180910390f35b34801561018557600080fd5b5061018e61048f565b60408051918252519081900360200190f35b3480156101ac57600080fd5b506101b5610495565b6040805160ff9092168252519081900360200190f35b3480156101d757600080fd5b5061018e61049e565b3480156101ec57600080fd5b506100db600160a060020a03600435166024356104a4565b34801561021057600080fd5b5061018e600160a060020a0360043516610507565b34801561023157600080fd5b5061023a610522565b005b34801561024857600080fd5b506100db610590565b34801561025d57600080fd5b50610266610614565b60408051600160a060020a039092168252519081900360200190f35b34801561028e57600080fd5b50610104610623565b3480156102a357600080fd5b506100db600160a060020a0360043516602435610684565b3480156102c757600080fd5b50604080516020600460443581810135601f81018490048402850184019095528484526100db948235600160a060020a03169460248035953695946064949201919081908401838280828437509497506106ba9650505050505050565b34801561033057600080fd5b5061023a600160a060020a03600435166106e7565b34801561035157600080fd5b50604080516020600460443581810135601f81018490048402850184019095528484526100db948235600160a060020a031694602480359536959460649492019190819084018382808284375050604080516020601f89358b018035918201839004830284018301909452808352979a99988101979196509182019450925082915084018382808284375094975061070a9650505050505050565b60065460a060020a900460ff1681565b60028054604080516020601f60001961010060018716150201909416859004938401819004810282018101909252828152606093909290918301828280156104855780601f1061045a57610100808354040283529160200191610485565b820191906000526020600020905b81548152906001019060200180831161046857829003601f168201915b5050505050905090565b60055490565b60045460ff1690565b60075481565b600654600090600160a060020a031633146104be57600080fd5b60065460a060020a900460ff16156104d557600080fd5b6007546005546104eb908463ffffffff61095516565b11156104f657600080fd5b6105008383610968565b9392505050565b600160a060020a031660009081526001602052604090205490565b600654600160a060020a0316331461053957600080fd5b600654604051600160a060020a03909116907ff8df31144d9c2f0f6b59d69b8b98abd5459d07f2742c4df920b25aae33c6482090600090a26006805473ffffffffffffffffffffffffffffffffffffffff19169055565b600654600090600160a060020a031633146105aa57600080fd5b60065460a060020a900460ff16156105c157600080fd5b6006805474ff0000000000000000000000000000000000000000191660a060020a1790556040517fae5184fba832cb2b1f702aca6117b8d265eaf03ad33eb133f19dde0f5920fa0890600090a150600190565b600654600160a060020a031681565b60038054604080516020601f60026000196101006001881615020190951694909404938401819004810282018101909252828152606093909290918301828280156104855780601f1061045a57610100808354040283529160200191610485565b6000606061069184610a85565b156106a8576106a1848483610a8d565b91506106b3565b6106a1848483610c8b565b5092915050565b60006106c584610a85565b156106dc576106d5848484610a8d565b9050610500565b6106d5848484610c8b565b600654600160a060020a031633146106fe57600080fd5b61070781610da1565b50565b600061071585610a85565b1561093f578361072433610507565b101561072f57600080fd5b3360009081526001602052604090205461074f908563ffffffff610e1f16565b3360009081526001602052604080822092909255600160a060020a03871681522054610781908563ffffffff61095516565b600160a060020a038616600081815260016020908152604080832094909455925185519293919286928291908401908083835b602083106107d35780518252601f1990920191602091820191016107b4565b6001836020036101000a038019825116818451168082178552505050505050905001915050604051809103902060e060020a9004903387876040518563ffffffff1660e060020a0281526004018084600160a060020a0316600160a060020a03168152602001838152602001828051906020019080838360005b8381101561086557818101518382015260200161084d565b50505050905090810190601f1680156108925780820380516001836020036101000a031916815260200191505b50935050505060006040518083038185885af1935050505015156108b257fe5b826040518082805190602001908083835b602083106108e25780518252601f1990920191602091820191016108c3565b51815160209384036101000a6000190180199092169116179052604080519290940182900382208a83529351939550600160a060020a038b1694503393600080516020610e328339815191529350918290030190a450600161094d565b61094a858585610c8b565b90505b949350505050565b8181018281101561096257fe5b92915050565b600654600090600160a060020a0316331461098257600080fd5b60065460a060020a900460ff161561099957600080fd5b6005546109ac908363ffffffff61095516565b600555600160a060020a0383166000908152600160205260409020546109d8908363ffffffff61095516565b600160a060020a038416600081815260016020908152604091829020939093558051858152905191927f0f6798a560793a54c3bcfe86a93cde1e73087d944c0ea20544137d412139688592918290030190a26040805183815290517fc5d2460186f7233c927e7db2dcc703c0e500b653ca82273b7bfad8045d85a47091600160a060020a03861691600091600080516020610e32833981519152919081900360200190a450600192915050565b6000903b1190565b60008083610a9a33610507565b1015610aa557600080fd5b33600090815260016020526040902054610ac5908563ffffffff610e1f16565b3360009081526001602052604080822092909255600160a060020a03871681522054610af7908563ffffffff61095516565b600160a060020a03861660008181526001602090815260408083209490945592517fc0ee0b8a0000000000000000000000000000000000000000000000000000000081523360048201818152602483018a90526060604484019081528951606485015289518c9850959663c0ee0b8a9693958c958c956084909101928601918190849084905b83811015610b95578181015183820152602001610b7d565b50505050905090810190601f168015610bc25780820380516001836020036101000a031916815260200191505b50945050505050600060405180830381600087803b158015610be357600080fd5b505af1158015610bf7573d6000803e3d6000fd5b50505050826040518082805190602001908083835b60208310610c2b5780518252601f199092019160209182019101610c0c565b51815160209384036101000a6000190180199092169116179052604080519290940182900382208a83529351939550600160a060020a038b1694503393600080516020610e328339815191529350918290030190a4506001949350505050565b600082610c9733610507565b1015610ca257600080fd5b33600090815260016020526040902054610cc2908463ffffffff610e1f16565b3360009081526001602052604080822092909255600160a060020a03861681522054610cf4908463ffffffff61095516565b600160a060020a0385166000908152600160209081526040918290209290925551835184928291908401908083835b60208310610d425780518252601f199092019160209182019101610d23565b51815160209384036101000a6000190180199092169116179052604080519290940182900382208983529351939550600160a060020a038a1694503393600080516020610e328339815191529350918290030190a45060019392505050565b600160a060020a0381161515610db657600080fd5b600654604051600160a060020a038084169216907f8be0079c531659141344cd1fd0a4f28419497f9722a3daafe3b4186f6b6457e090600090a36006805473ffffffffffffffffffffffffffffffffffffffff1916600160a060020a0392909216919091179055565b600082821115610e2b57fe5b509003905600e19260aff97b920c7df27010903aeb9c8d2be5d310a2c67824cf3f15396e4c16a165627a7a72305820a77c8633feeecd2d8bca7c0ff2ce0e461ecbb830f28df9ab1ab53d5a64825be50029",
  "source": "pragma solidity ^0.4.24;\n\nimport \"../../../token/contracts/MintableToken.sol\";\n\n/**\n * @title Capped token\n * @dev Mintable token with a token cap.\n */\ncontract CappedToken is MintableToken {\n    uint256 public cap;\n\n    function CappedToken(uint256 _cap) public {\n        require(_cap > 0);\n        cap = _cap;\n    }\n\n    /**\n    * @dev Function to mint tokens\n    * @param _to The address that will receive the minted tokens.\n    * @param _amount The amount of tokens to mint.\n    * @return A boolean that indicates if the operation was successful.\n    */\n    function mint(address _to, uint256 _amount) onlyOwner canMint public returns (bool) {\n        require(totalSupply.add(_amount) <= cap);\n\n        return super.mint(_to, _amount);\n    }\n\n}",
  "sourcePath": "/Users/juliusbrain/go/src/github.com/kowala-tech/kcoin/client/contracts/consensus/contracts/token/CappedToken.sol",
  "compiler": {
    "name": "solc",
    "version": "0.4.24+commit.e67f0147.Emscripten.clang"
  },
  "schemaVersion": "2.0.0",
  "updatedAt": "2018-07-02T16:29:06.255Z"
}