{
  "contractName": "MintableToken",
  "abi": [
    {
      "constant": true,
      "inputs": [],
      "name": "mintingFinished",
      "outputs": [
        {
          "name": "",
          "type": "bool"
        }
      ],
      "payable": false,
      "stateMutability": "view",
      "type": "function"
    },
    {
      "constant": true,
      "inputs": [],
      "name": "name",
      "outputs": [
        {
          "name": "_name",
          "type": "string"
        }
      ],
      "payable": false,
      "stateMutability": "view",
      "type": "function"
    },
    {
      "constant": true,
      "inputs": [],
      "name": "totalSupply",
      "outputs": [
        {
          "name": "_totalSupply",
          "type": "uint256"
        }
      ],
      "payable": false,
      "stateMutability": "view",
      "type": "function"
    },
    {
      "constant": true,
      "inputs": [],
      "name": "decimals",
      "outputs": [
        {
          "name": "_decimals",
          "type": "uint8"
        }
      ],
      "payable": false,
      "stateMutability": "view",
      "type": "function"
    },
    {
      "constant": true,
      "inputs": [
        {
          "name": "_owner",
          "type": "address"
        }
      ],
      "name": "balanceOf",
      "outputs": [
        {
          "name": "balance",
          "type": "uint256"
        }
      ],
      "payable": false,
      "stateMutability": "view",
      "type": "function"
    },
    {
      "constant": false,
      "inputs": [],
      "name": "renounceOwnership",
      "outputs": [],
      "payable": false,
      "stateMutability": "nonpayable",
      "type": "function"
    },
    {
      "constant": true,
      "inputs": [],
      "name": "owner",
      "outputs": [
        {
          "name": "",
          "type": "address"
        }
      ],
      "payable": false,
      "stateMutability": "view",
      "type": "function"
    },
    {
      "constant": true,
      "inputs": [],
      "name": "symbol",
      "outputs": [
        {
          "name": "_symbol",
          "type": "string"
        }
      ],
      "payable": false,
      "stateMutability": "view",
      "type": "function"
    },
    {
      "constant": false,
      "inputs": [
        {
          "name": "_to",
          "type": "address"
        },
        {
          "name": "_value",
          "type": "uint256"
        }
      ],
      "name": "transfer",
      "outputs": [
        {
          "name": "success",
          "type": "bool"
        }
      ],
      "payable": false,
      "stateMutability": "nonpayable",
      "type": "function"
    },
    {
      "constant": false,
      "inputs": [
        {
          "name": "_to",
          "type": "address"
        },
        {
          "name": "_value",
          "type": "uint256"
        },
        {
          "name": "_data",
          "type": "bytes"
        }
      ],
      "name": "transfer",
      "outputs": [
        {
          "name": "success",
          "type": "bool"
        }
      ],
      "payable": false,
      "stateMutability": "nonpayable",
      "type": "function"
    },
    {
      "constant": false,
      "inputs": [
        {
          "name": "_newOwner",
          "type": "address"
        }
      ],
      "name": "transferOwnership",
      "outputs": [],
      "payable": false,
      "stateMutability": "nonpayable",
      "type": "function"
    },
    {
      "constant": false,
      "inputs": [
        {
          "name": "_to",
          "type": "address"
        },
        {
          "name": "_value",
          "type": "uint256"
        },
        {
          "name": "_data",
          "type": "bytes"
        },
        {
          "name": "_custom_fallback",
          "type": "string"
        }
      ],
      "name": "transfer",
      "outputs": [
        {
          "name": "success",
          "type": "bool"
        }
      ],
      "payable": false,
      "stateMutability": "nonpayable",
      "type": "function"
    },
    {
      "anonymous": false,
      "inputs": [
        {
          "indexed": true,
          "name": "to",
          "type": "address"
        },
        {
          "indexed": false,
          "name": "amount",
          "type": "uint256"
        }
      ],
      "name": "Mint",
      "type": "event"
    },
    {
      "anonymous": false,
      "inputs": [],
      "name": "MintFinished",
      "type": "event"
    },
    {
      "anonymous": false,
      "inputs": [
        {
          "indexed": true,
          "name": "previousOwner",
          "type": "address"
        }
      ],
      "name": "OwnershipRenounced",
      "type": "event"
    },
    {
      "anonymous": false,
      "inputs": [
        {
          "indexed": true,
          "name": "previousOwner",
          "type": "address"
        },
        {
          "indexed": true,
          "name": "newOwner",
          "type": "address"
        }
      ],
      "name": "OwnershipTransferred",
      "type": "event"
    },
    {
      "anonymous": false,
      "inputs": [
        {
          "indexed": true,
          "name": "from",
          "type": "address"
        },
        {
          "indexed": true,
          "name": "to",
          "type": "address"
        },
        {
          "indexed": false,
          "name": "value",
          "type": "uint256"
        },
        {
          "indexed": true,
          "name": "data",
          "type": "bytes"
        }
      ],
      "name": "Transfer",
      "type": "event"
    },
    {
      "constant": false,
      "inputs": [
        {
          "name": "_to",
          "type": "address"
        },
        {
          "name": "_amount",
          "type": "uint256"
        }
      ],
      "name": "mint",
      "outputs": [
        {
          "name": "",
          "type": "bool"
        }
      ],
      "payable": false,
      "stateMutability": "nonpayable",
      "type": "function"
    },
    {
      "constant": false,
      "inputs": [],
      "name": "finishMinting",
      "outputs": [
        {
          "name": "",
          "type": "bool"
        }
      ],
      "payable": false,
      "stateMutability": "nonpayable",
      "type": "function"
    }
  ],
  "bytecode": "0x608060405260068054600160a860020a03191633179055610e3f806100256000396000f3006080604052600436106100b65763ffffffff60e060020a60003504166305d2035b81146100bb57806306fdde03146100e457806318160ddd1461016e578063313ce5671461019557806340c10f19146101c057806370a08231146101e4578063715018a6146102055780637d64bcb41461021c5780638da5cb5b1461023157806395d89b4114610262578063a9059cbb14610277578063be45fd621461029b578063f2fde38b14610304578063f6368f8a14610325575b600080fd5b3480156100c757600080fd5b506100d06103cc565b604080519115158252519081900360200190f35b3480156100f057600080fd5b506100f96103ed565b6040805160208082528351818301528351919283929083019185019080838360005b8381101561013357818101518382015260200161011b565b50505050905090810190601f1680156101605780820380516001836020036101000a031916815260200191505b509250505060405180910390f35b34801561017a57600080fd5b50610183610480565b60408051918252519081900360200190f35b3480156101a157600080fd5b506101aa610486565b6040805160ff9092168252519081900360200190f35b3480156101cc57600080fd5b506100d0600160a060020a036004351660243561048f565b3480156101f057600080fd5b50610183600160a060020a03600435166105bd565b34801561021157600080fd5b5061021a6105d8565b005b34801561022857600080fd5b506100d0610646565b34801561023d57600080fd5b506102466106ec565b60408051600160a060020a039092168252519081900360200190f35b34801561026e57600080fd5b506100f96106fb565b34801561028357600080fd5b506100d0600160a060020a036004351660243561075c565b3480156102a757600080fd5b50604080516020600460443581810135601f81018490048402850184019095528484526100d0948235600160a060020a03169460248035953695946064949201919081908401838280828437509497506107929650505050505050565b34801561031057600080fd5b5061021a600160a060020a03600435166107c6565b34801561033157600080fd5b50604080516020600460443581810135601f81018490048402850184019095528484526100d0948235600160a060020a031694602480359536959460649492019190819084018382808284375050604080516020601f89358b018035918201839004830284018301909452808352979a9998810197919650918201945092508291508401838280828437509497506107e99650505050505050565b60065474010000000000000000000000000000000000000000900460ff1681565b60028054604080516020601f60001961010060018716150201909416859004938401819004810282018101909252828152606093909290918301828280156104765780601f1061044b57610100808354040283529160200191610476565b820191906000526020600020905b81548152906001019060200180831161045957829003601f168201915b5050505050905090565b60055490565b60045460ff1690565b600654600090600160a060020a031633146104a957600080fd5b60065474010000000000000000000000000000000000000000900460ff16156104d157600080fd5b6005546104e4908363ffffffff610a3416565b600555600160a060020a038316600090815260016020526040902054610510908363ffffffff610a3416565b600160a060020a038416600081815260016020908152604091829020939093558051858152905191927f0f6798a560793a54c3bcfe86a93cde1e73087d944c0ea20544137d412139688592918290030190a26040805183815290517fc5d2460186f7233c927e7db2dcc703c0e500b653ca82273b7bfad8045d85a47091600160a060020a03861691600091600080516020610df4833981519152919081900360200190a450600192915050565b600160a060020a031660009081526001602052604090205490565b600654600160a060020a031633146105ef57600080fd5b600654604051600160a060020a03909116907ff8df31144d9c2f0f6b59d69b8b98abd5459d07f2742c4df920b25aae33c6482090600090a26006805473ffffffffffffffffffffffffffffffffffffffff19169055565b600654600090600160a060020a0316331461066057600080fd5b60065474010000000000000000000000000000000000000000900460ff161561068857600080fd5b6006805474ff00000000000000000000000000000000000000001916740100000000000000000000000000000000000000001790556040517fae5184fba832cb2b1f702aca6117b8d265eaf03ad33eb133f19dde0f5920fa0890600090a150600190565b600654600160a060020a031681565b60038054604080516020601f60026000196101006001881615020190951694909404938401819004810282018101909252828152606093909290918301828280156104765780601f1061044b57610100808354040283529160200191610476565b6000606061076984610a47565b1561078057610779848483610a4f565b915061078b565b610779848483610c4d565b5092915050565b600061079d84610a47565b156107b4576107ad848484610a4f565b90506107bf565b6107ad848484610c4d565b9392505050565b600654600160a060020a031633146107dd57600080fd5b6107e681610d63565b50565b60006107f485610a47565b15610a1e5783610803336105bd565b101561080e57600080fd5b3360009081526001602052604090205461082e908563ffffffff610de116565b3360009081526001602052604080822092909255600160a060020a03871681522054610860908563ffffffff610a3416565b600160a060020a038616600081815260016020908152604080832094909455925185519293919286928291908401908083835b602083106108b25780518252601f199092019160209182019101610893565b6001836020036101000a038019825116818451168082178552505050505050905001915050604051809103902060e060020a9004903387876040518563ffffffff1660e060020a0281526004018084600160a060020a0316600160a060020a03168152602001838152602001828051906020019080838360005b8381101561094457818101518382015260200161092c565b50505050905090810190601f1680156109715780820380516001836020036101000a031916815260200191505b50935050505060006040518083038185885af19350505050151561099157fe5b826040518082805190602001908083835b602083106109c15780518252601f1990920191602091820191016109a2565b51815160209384036101000a6000190180199092169116179052604080519290940182900382208a83529351939550600160a060020a038b1694503393600080516020610df48339815191529350918290030190a4506001610a2c565b610a29858585610c4d565b90505b949350505050565b81810182811015610a4157fe5b92915050565b6000903b1190565b60008083610a5c336105bd565b1015610a6757600080fd5b33600090815260016020526040902054610a87908563ffffffff610de116565b3360009081526001602052604080822092909255600160a060020a03871681522054610ab9908563ffffffff610a3416565b600160a060020a03861660008181526001602090815260408083209490945592517fc0ee0b8a0000000000000000000000000000000000000000000000000000000081523360048201818152602483018a90526060604484019081528951606485015289518c9850959663c0ee0b8a9693958c958c956084909101928601918190849084905b83811015610b57578181015183820152602001610b3f565b50505050905090810190601f168015610b845780820380516001836020036101000a031916815260200191505b50945050505050600060405180830381600087803b158015610ba557600080fd5b505af1158015610bb9573d6000803e3d6000fd5b50505050826040518082805190602001908083835b60208310610bed5780518252601f199092019160209182019101610bce565b51815160209384036101000a6000190180199092169116179052604080519290940182900382208a83529351939550600160a060020a038b1694503393600080516020610df48339815191529350918290030190a4506001949350505050565b600082610c59336105bd565b1015610c6457600080fd5b33600090815260016020526040902054610c84908463ffffffff610de116565b3360009081526001602052604080822092909255600160a060020a03861681522054610cb6908463ffffffff610a3416565b600160a060020a0385166000908152600160209081526040918290209290925551835184928291908401908083835b60208310610d045780518252601f199092019160209182019101610ce5565b51815160209384036101000a6000190180199092169116179052604080519290940182900382208983529351939550600160a060020a038a1694503393600080516020610df48339815191529350918290030190a45060019392505050565b600160a060020a0381161515610d7857600080fd5b600654604051600160a060020a038084169216907f8be0079c531659141344cd1fd0a4f28419497f9722a3daafe3b4186f6b6457e090600090a36006805473ffffffffffffffffffffffffffffffffffffffff1916600160a060020a0392909216919091179055565b600082821115610ded57fe5b509003905600e19260aff97b920c7df27010903aeb9c8d2be5d310a2c67824cf3f15396e4c16a165627a7a72305820b0757fcaa87bbf761d3d7312f81d766e0baf590f784aab9a3a763586004939800029",
  "source": "pragma solidity ^0.4.24;\n\nimport \"./Token.sol\";\nimport \"openzeppelin-solidity/contracts/ownership/Ownable.sol\";\n\ncontract MintableToken is Token, Ownable {\n    event Mint(address indexed to, uint256 amount);\n    event MintFinished();\n\n    bool public mintingFinished = false;\n\n\n    modifier canMint() {\n        require(!mintingFinished);\n        _;\n    }\n\n    /**\n    * @dev Function to mint tokens\n    * @param _to The address that will receive the minted tokens.\n    * @param _amount The amount of tokens to mint.\n    * @return A boolean that indicates if the operation was successful.\n    */\n    function mint(address _to, uint256 _amount) onlyOwner canMint public returns (bool) {\n        totalSupply = totalSupply.add(_amount);\n        balances[_to] = balances[_to].add(_amount);\n        emit Mint(_to, _amount);\n        emit Transfer(address(0), _to, _amount, \"\");\n        return true;\n    }\n\n    /**\n    * @dev Function to stop minting new tokens.\n    * @return True if the operation was successful.\n    */\n    function finishMinting() onlyOwner canMint public returns (bool) {\n        mintingFinished = true;\n        emit MintFinished();\n        return true;\n    }\n}",
  "sourcePath": "/Users/juliusbrain/go/src/github.com/kowala-tech/kcoin/client/contracts/token/contracts/MintableToken.sol",
  "compiler": {
    "name": "solc",
    "version": "0.4.24+commit.e67f0147.Emscripten.clang"
  },
  "schemaVersion": "2.0.0",
  "updatedAt": "2018-07-02T16:29:06.264Z"
}