{
  "contractName": "OracleMgr",
  "abi": [
    {
      "constant": true,
      "inputs": [],
      "name": "maxNumOracles",
      "outputs": [
        {
          "name": "",
          "type": "uint256"
        }
      ],
      "payable": false,
      "stateMutability": "view",
      "type": "function"
    },
    {
      "constant": true,
      "inputs": [],
      "name": "freezePeriod",
      "outputs": [
        {
          "name": "",
          "type": "uint256"
        }
      ],
      "payable": false,
      "stateMutability": "view",
      "type": "function"
    },
    {
      "constant": false,
      "inputs": [],
      "name": "unpause",
      "outputs": [],
      "payable": false,
      "stateMutability": "nonpayable",
      "type": "function"
    },
    {
      "constant": true,
      "inputs": [],
      "name": "paused",
      "outputs": [
        {
          "name": "",
          "type": "bool"
        }
      ],
      "payable": false,
      "stateMutability": "view",
      "type": "function"
    },
    {
      "constant": true,
      "inputs": [],
      "name": "baseDeposit",
      "outputs": [
        {
          "name": "",
          "type": "uint256"
        }
      ],
      "payable": false,
      "stateMutability": "view",
      "type": "function"
    },
    {
      "constant": false,
      "inputs": [],
      "name": "renounceOwnership",
      "outputs": [],
      "payable": false,
      "stateMutability": "nonpayable",
      "type": "function"
    },
    {
      "constant": false,
      "inputs": [],
      "name": "pause",
      "outputs": [],
      "payable": false,
      "stateMutability": "nonpayable",
      "type": "function"
    },
    {
      "constant": true,
      "inputs": [],
      "name": "owner",
      "outputs": [
        {
          "name": "",
          "type": "address"
        }
      ],
      "payable": false,
      "stateMutability": "view",
      "type": "function"
    },
    {
      "constant": true,
      "inputs": [],
      "name": "price",
      "outputs": [
        {
          "name": "",
          "type": "uint256"
        }
      ],
      "payable": false,
      "stateMutability": "view",
      "type": "function"
    },
    {
      "constant": true,
      "inputs": [],
      "name": "updatePeriod",
      "outputs": [
        {
          "name": "",
          "type": "uint256"
        }
      ],
      "payable": false,
      "stateMutability": "view",
      "type": "function"
    },
    {
      "constant": true,
      "inputs": [],
      "name": "syncFrequency",
      "outputs": [
        {
          "name": "",
          "type": "uint256"
        }
      ],
      "payable": false,
      "stateMutability": "view",
      "type": "function"
    },
    {
      "constant": false,
      "inputs": [
        {
          "name": "_newOwner",
          "type": "address"
        }
      ],
      "name": "transferOwnership",
      "outputs": [],
      "payable": false,
      "stateMutability": "nonpayable",
      "type": "function"
    },
    {
      "inputs": [
        {
          "name": "_initialPrice",
          "type": "uint256"
        },
        {
          "name": "_baseDeposit",
          "type": "uint256"
        },
        {
          "name": "_maxNumOracles",
          "type": "uint256"
        },
        {
          "name": "_freezePeriod",
          "type": "uint256"
        },
        {
          "name": "_syncFrequency",
          "type": "uint256"
        },
        {
          "name": "_updatePeriod",
          "type": "uint256"
        }
      ],
      "payable": false,
      "stateMutability": "nonpayable",
      "type": "constructor"
    },
    {
      "anonymous": false,
      "inputs": [],
      "name": "Pause",
      "type": "event"
    },
    {
      "anonymous": false,
      "inputs": [],
      "name": "Unpause",
      "type": "event"
    },
    {
      "anonymous": false,
      "inputs": [
        {
          "indexed": true,
          "name": "previousOwner",
          "type": "address"
        }
      ],
      "name": "OwnershipRenounced",
      "type": "event"
    },
    {
      "anonymous": false,
      "inputs": [
        {
          "indexed": true,
          "name": "previousOwner",
          "type": "address"
        },
        {
          "indexed": true,
          "name": "newOwner",
          "type": "address"
        }
      ],
      "name": "OwnershipTransferred",
      "type": "event"
    },
    {
      "constant": true,
      "inputs": [
        {
          "name": "identity",
          "type": "address"
        }
      ],
      "name": "isOracle",
      "outputs": [
        {
          "name": "isIndeed",
          "type": "bool"
        }
      ],
      "payable": false,
      "stateMutability": "view",
      "type": "function"
    },
    {
      "constant": true,
      "inputs": [],
      "name": "_hasAvailability",
      "outputs": [
        {
          "name": "available",
          "type": "bool"
        }
      ],
      "payable": false,
      "stateMutability": "view",
      "type": "function"
    },
    {
      "constant": true,
      "inputs": [],
      "name": "getOracleCount",
      "outputs": [
        {
          "name": "count",
          "type": "uint256"
        }
      ],
      "payable": false,
      "stateMutability": "view",
      "type": "function"
    },
    {
      "constant": true,
      "inputs": [
        {
          "name": "index",
          "type": "uint256"
        }
      ],
      "name": "getOracleAtIndex",
      "outputs": [
        {
          "name": "code",
          "type": "address"
        },
        {
          "name": "deposit",
          "type": "uint256"
        }
      ],
      "payable": false,
      "stateMutability": "view",
      "type": "function"
    },
    {
      "constant": true,
      "inputs": [],
      "name": "getMinimumDeposit",
      "outputs": [
        {
          "name": "deposit",
          "type": "uint256"
        }
      ],
      "payable": false,
      "stateMutability": "view",
      "type": "function"
    },
    {
      "constant": true,
      "inputs": [],
      "name": "getDepositCount",
      "outputs": [
        {
          "name": "count",
          "type": "uint256"
        }
      ],
      "payable": false,
      "stateMutability": "view",
      "type": "function"
    },
    {
      "constant": true,
      "inputs": [
        {
          "name": "index",
          "type": "uint256"
        }
      ],
      "name": "getDepositAtIndex",
      "outputs": [
        {
          "name": "amount",
          "type": "uint256"
        },
        {
          "name": "availableAt",
          "type": "uint256"
        }
      ],
      "payable": false,
      "stateMutability": "view",
      "type": "function"
    },
    {
      "constant": false,
      "inputs": [],
      "name": "registerOracle",
      "outputs": [],
      "payable": true,
      "stateMutability": "payable",
      "type": "function"
    },
    {
      "constant": false,
      "inputs": [],
      "name": "deregisterOracle",
      "outputs": [],
      "payable": false,
      "stateMutability": "nonpayable",
      "type": "function"
    },
    {
      "constant": false,
      "inputs": [],
      "name": "releaseDeposits",
      "outputs": [],
      "payable": false,
      "stateMutability": "nonpayable",
      "type": "function"
    },
    {
      "constant": false,
      "inputs": [
        {
          "name": "_price",
          "type": "uint256"
        }
      ],
      "name": "addPrice",
      "outputs": [],
      "payable": false,
      "stateMutability": "nonpayable",
      "type": "function"
    }
  ],
  "bytecode": "0x60806040526000805460a060020a60ff021916905534801561002057600080fd5b5060405160c080610eb383398101604090815281516020830151918301516060840151608085015160a09095015160008054600160a060020a0319163317815593959293919291861161007257600080fd5b6000841161007f57600080fd5b600082101561008d57600080fd5b60008211156100b1576000811180156100a65750818111155b15156100b157600080fd5b6006959095556001939093556002919091556201518002600355600455600555610dd3806100e06000396000f3006080604052600436106101315763ffffffff7c0100000000000000000000000000000000000000000000000000000000600035041662fe7b118114610136578063035cf1421461015d57806309fe9d39146101725780630a3cb663146101ad578063339d2590146101c25780633ed0a373146101cc5780633f4ba83a146101fd5780633f4e4251146102125780635c975abb146102275780636947462514610250578063715018a6146102655780638456cb591461027a5780638da5cb5b1461028f5780639363a141146102c057806397584b3e146102d5578063a035b1fe146102ea578063a83627de146102ff578063a97e5c9314610314578063aded41ec14610335578063cdee7e071461034a578063e9f0ee561461035f578063f2fde38b14610377578063f93a2eb214610398575b600080fd5b34801561014257600080fd5b5061014b6103ad565b60408051918252519081900360200190f35b34801561016957600080fd5b5061014b6103b3565b34801561017e57600080fd5b5061018a60043561043d565b60408051600160a060020a03909316835260208301919091528051918290030190f35b3480156101b957600080fd5b5061014b6104aa565b6101ca6104b0565b005b3480156101d857600080fd5b506101e4600435610510565b6040805192835260208301919091528051918290030190f35b34801561020957600080fd5b506101ca610556565b34801561021e57600080fd5b5061014b6105cc565b34801561023357600080fd5b5061023c6105d3565b604080519115158252519081900360200190f35b34801561025c57600080fd5b5061014b6105e3565b34801561027157600080fd5b506101ca6105e9565b34801561028657600080fd5b506101ca610655565b34801561029b57600080fd5b506102a46106d0565b60408051600160a060020a039092168252519081900360200190f35b3480156102cc57600080fd5b5061014b6106df565b3480156102e157600080fd5b5061023c6106f5565b3480156102f657600080fd5b5061014b610704565b34801561030b57600080fd5b5061014b61070a565b34801561032057600080fd5b5061023c600160a060020a0360043516610710565b34801561034157600080fd5b506101ca610731565b34801561035657600080fd5b5061014b610840565b34801561036b57600080fd5b506101ca600435610846565b34801561038357600080fd5b506101ca600160a060020a0360043516610885565b3480156103a457600080fd5b506101ca6108a8565b60025481565b6000806103be6106f5565b156103cd576001549150610439565b6008805460079160009160001981019081106103e557fe5b6000918252602080832090910154600160a060020a03168352820192909252604001902060028101805491925090600019810190811061042157fe5b90600052602060002090600202016000015460010191505b5090565b600080600060088481548110151561045157fe5b6000918252602080832090910154600160a060020a03168083526007909152604090912060028101805492955090925090600019810190811061049057fe5b906000526020600020906002020160000154915050915091565b60035481565b60005460a060020a900460ff16156104c757600080fd5b6104d033610710565b156104da57600080fd5b6104e26103b3565b3410156104ee57600080fd5b6104f66106f5565b1515610504576105046108dc565b61050e333461090d565b565b3360009081526007602052604081206002018054829182918590811061053257fe5b90600052602060002090600202019050806000015481600101549250925050915091565b600054600160a060020a0316331461056d57600080fd5b60005460a060020a900460ff16151561058557600080fd5b6000805474ff0000000000000000000000000000000000000000191681556040517f7805862f689e2f13df9f062ff482ad3ad112aca9e0847911ed832e158c525b339190a1565b6008545b90565b60005460a060020a900460ff1681565b60015481565b600054600160a060020a0316331461060057600080fd5b60008054604051600160a060020a03909116917ff8df31144d9c2f0f6b59d69b8b98abd5459d07f2742c4df920b25aae33c6482091a26000805473ffffffffffffffffffffffffffffffffffffffff19169055565b600054600160a060020a0316331461066c57600080fd5b60005460a060020a900460ff161561068357600080fd5b6000805474ff0000000000000000000000000000000000000000191660a060020a1781556040517f6985a02210a168e66602d3235cb6db0e70f92b3ba4d376a33c0f3d9434bff6259190a1565b600054600160a060020a031681565b3360009081526007602052604090206002015490565b60085460025460009190031190565b60065481565b60055481565b600160a060020a031660009081526007602052604090206001015460ff1690565b600080548190819060a060020a900460ff161561074d57600080fd5b505033600090815260076020526040812090915081906002015b8054821080156107975750808281548110151561078057fe5b906000526020600020906002020160010154600014155b156107f95780828154811015156107aa57fe5b9060005260206000209060020201600101544210156107c8576107f9565b80828154811015156107d657fe5b906000526020600020906002020160000154830192508180600101925050610767565b6108033383610b05565b600083111561083b57604051339084156108fc029085906000818181858888f19350505050158015610839573d6000803e3d6000fd5b505b505050565b60045481565b60005460a060020a900460ff161561085d57600080fd5b61086633610710565b151561087157600080fd5b806000811161087f57600080fd5b50600655565b600054600160a060020a0316331461089c57600080fd5b6108a581610bac565b50565b60005460a060020a900460ff16156108bf57600080fd5b6108c833610710565b15156108d357600080fd5b61050e33610c29565b6008805461050e919060001981019081106108f357fe5b600091825260209091200154600160a060020a0316610c29565b600160a060020a03821660008181526007602090815260408083206008805460018181019092557ff3f7a9fe364faab93b216da50a3214154f22a0a2b415b23a84c8169e8b636ee38101805473ffffffffffffffffffffffffffffffffffffffff1916909717909655948155848101805460ff19168617905581518083019092528582528183018481526002808301805480890182559087529486209351940290920192835590519190930155815490805b6000831115610afd57600760006008600186038154811015156109de57fe5b6000918252602080832090910154600160a060020a031683528201929092526040019020600281018054919350906000198101908110610a1a57fe5b90600052602060002090600202019050806000015485111515610a3c57610afd565b600880546000198501908110610a4e57fe5b60009182526020909120015460088054600160a060020a039092169185908110610a7457fe5b9060005260206000200160006101000a815481600160a060020a030219169083600160a060020a0316021790555085600860018503815481101515610ab557fe5b6000918252602090912001805473ffffffffffffffffffffffffffffffffffffffff1916600160a060020a0392909216919091179055828255600019909201808455916109bf565b505050505050565b60008080831515610b1557610ba5565b505050600160a060020a038216600090815260076020526040812090825b6002830154811015610b975760028301805482908110610b4f57fe5b90600052602060002090600202018360020183815481101515610b6e57fe5b600091825260209091208254600290920201908155600191820154908201559182019101610b33565b81610afd6002850182610d1d565b5050505050565b600160a060020a0381161515610bc157600080fd5b60008054604051600160a060020a03808516939216917f8be0079c531659141344cd1fd0a4f28419497f9722a3daafe3b4186f6b6457e091a36000805473ffffffffffffffffffffffffffffffffffffffff1916600160a060020a0392909216919091179055565b600160a060020a038116600090815260076020526040902080545b60085460001901811015610cc7576008805460018301908110610c6357fe5b60009182526020909120015460088054600160a060020a039092169183908110610c8957fe5b6000918252602090912001805473ffffffffffffffffffffffffffffffffffffffff1916600160a060020a0392909216919091179055600101610c44565b6008805490610cda906000198301610d49565b5060018201805460ff1916905560035460028301805442909201916000198101908110610d0357fe5b906000526020600020906002020160010181905550505050565b81548183558181111561083b5760020281600202836000526020600020918201910161083b9190610d6d565b81548183558181111561083b5760008381526020902061083b918101908301610d8d565b6105d091905b808211156104395760008082556001820155600201610d73565b6105d091905b808211156104395760008155600101610d935600a165627a7a723058200e8ffedca4750145912a1e598242a3672052dd10bd27c7729626dda7ccee3c410029",
  "source": "pragma solidity ^0.4.24;\n\nimport \"openzeppelin-solidity/contracts/lifecycle/Pausable.sol\";\n\ncontract OracleMgr is Pausable {\n\n    uint public baseDeposit;       \n    uint public maxNumOracles;\n    uint public freezePeriod;\n    uint public syncFrequency;\n    uint public updatePeriod;\n    uint public price;\n\n    struct Deposit {\n        uint amount;\n        uint availableAt;\n    }\n\n    struct Oracle {\n        uint index;\n        bool isOracle;\n        Deposit[] deposits; \n    }\n    \n    mapping (address => Oracle) private oracleRegistry;\n    \n    // oraclePool contains the oracle identity ordered by the biggest deposit to\n    // the smallest deposit.\n    address[] private oraclePool;\n\n    modifier onlyWithMinDeposit {\n        require(msg.value >= getMinimumDeposit());\n        _;\n    }\n\n    modifier onlyOracle {\n        require(isOracle(msg.sender));\n        _;\n    }\n\n    modifier onlyNewCandidate {\n        require(!isOracle(msg.sender));\n        _;\n    }\n\n    modifier onlyValidPrice(uint _price) {\n        require(_price > 0);\n        _;\n    }\n\n    function OracleMgr(\n        uint _initialPrice, \n        uint _baseDeposit,\n        uint _maxNumOracles,\n        uint _freezePeriod,\n        uint _syncFrequency,\n        uint _updatePeriod) \n    public {\n        require(_initialPrice > 0);\n        require(_maxNumOracles > 0);\n        require(_syncFrequency >= 0);\n\n        // sync enabled\n        if (_syncFrequency > 0) {\n            require(_updatePeriod > 0 && _updatePeriod <= _syncFrequency);\n        }\n        \n        price = _initialPrice;\n        baseDeposit = _baseDeposit;\n        maxNumOracles = _maxNumOracles;\n        freezePeriod = _freezePeriod * 1 days;\n        syncFrequency = _syncFrequency;\n        updatePeriod = _updatePeriod;\n    }\n\n    function isOracle(address identity) public view returns (bool isIndeed) {\n        return oracleRegistry[identity].isOracle;\n    }\n\n    function _hasAvailability() public view returns (bool available) {\n        return (maxNumOracles - oraclePool.length) > 0;\n    }\n\n    function _deleteOracle(address identity) private {\n        Oracle oracle = oracleRegistry[identity];\n        for (uint index = oracle.index; index < oraclePool.length - 1; index++) {\n            oraclePool[index] = oraclePool[index + 1];\n        }\n        oraclePool.length--;\n\n        oracle.isOracle = false;\n        oracle.deposits[oracle.deposits.length - 1].availableAt = now + freezePeriod;\n    }\n\n    // _deleteSmallestBidder removes the oracle with the smallest deposit\n    function _deleteSmallestBidder() private {\n        _deleteOracle(oraclePool[oraclePool.length - 1]);\n    }\n\n    function _insertOracle(address identity, uint deposit) private {\n        Oracle oracle = oracleRegistry[identity];\n        oracle.index = oraclePool.push(identity) - 1;\n        oracle.isOracle = true;\n        oracle.deposits.push(Deposit({amount: deposit, availableAt: 0}));\n\n        for (uint index = oracle.index; index > 0; index--) {\n            Oracle target = oracleRegistry[oraclePool[index - 1]];\n            Deposit collateral = target.deposits[target.deposits.length - 1];\n            if (deposit <= collateral.amount) {\n                break;\n            }\n            oraclePool[index] = oraclePool[index - 1];\n            oraclePool[index - 1] = identity; \n            // update indexes\n            target.index = index;\n            oracle.index = index - 1;\n        }\n    }\n\n    function getOracleCount() public view returns (uint count) {\n        return oraclePool.length;\n    }\n\n    function getOracleAtIndex(uint index) public view returns (address code, uint deposit) {\n        code = oraclePool[index];\n        Oracle oracle = oracleRegistry[code];\n        deposit = oracle.deposits[oracle.deposits.length - 1].amount;\n    }\n\n    // getMinimumDeposit returns the base deposit if there are positions available or\n    // the current smallest deposit required if there aren't positions available.\n    function getMinimumDeposit() public view returns (uint deposit) {\n        // there are positions for validator available\n        if (_hasAvailability()) {\n            return baseDeposit;\n        } else {\n            Oracle smallestBidder = oracleRegistry[oraclePool[oraclePool.length - 1]];               \n            return smallestBidder.deposits[smallestBidder.deposits.length - 1].amount + 1;\n        }\n    }\n    \n    function getDepositCount() public view returns (uint count) {\n        return oracleRegistry[msg.sender].deposits.length; \n    }\n\n    function getDepositAtIndex(uint index) public view returns (uint amount, uint availableAt) {\n        Deposit deposit = oracleRegistry[msg.sender].deposits[index];\n        return (deposit.amount, deposit.availableAt);\n    }\n\n    // registerOracle registers a new candidate as oracle\n    function registerOracle() public payable whenNotPaused onlyNewCandidate onlyWithMinDeposit {\n        if (!_hasAvailability()) {\n            _deleteSmallestBidder();\n        }\n        _insertOracle(msg.sender, msg.value);\n    }\n\n    // deregisterOracle deregisters the msg sender from the oracle set\n    function deregisterOracle() public whenNotPaused onlyOracle {\n        _deleteOracle(msg.sender);\n    }\n\n    function _removeDeposits(address identity, uint index) private {\n        if (index == 0) return;\n\n        Oracle oracle = oracleRegistry[identity];\n        uint lo = 0;\n        uint hi = index;\n        while (hi < oracle.deposits.length) {\n            oracle.deposits[lo] = oracle.deposits[hi];\n            lo++;\n            hi++;\n        }\n        oracle.deposits.length = lo;\n    }\n\n    // releaseDeposits transfers locked deposit(s) back the user account if they\n    // are past the freeze period\n    function releaseDeposits() public whenNotPaused {\n        uint refund = 0;\n        uint i = 0;\n        Deposit[] deposits = oracleRegistry[msg.sender].deposits;\n        \n        for (; i < deposits.length && deposits[i].availableAt != 0; i++) {\n            if (now < deposits[i].availableAt) {\n                break;\n            }\n            refund += deposits[i].amount;\n        }\n        \n        _removeDeposits(msg.sender, i);\n\n        if (refund > 0) {\n            msg.sender.transfer(refund);\n        }\n    }\n\n    function addPrice(uint _price) public whenNotPaused onlyOracle onlyValidPrice(_price) {\n        price = _price;\n    }\n}",
  "sourcePath": "/Users/juliusbrain/go/src/github.com/kowala-tech/kcoin/client/contracts/oracle/contracts/OracleMgr.sol",
  "compiler": {
    "name": "solc",
    "version": "0.4.24+commit.e67f0147.Emscripten.clang"
  },
  "schemaVersion": "2.0.1",
  "updatedAt": "2018-07-03T08:12:32.059Z"
}