{
  "contractName": "Token",
  "abi": [
    {
      "anonymous": false,
      "inputs": [
        {
          "indexed": true,
          "name": "from",
          "type": "address"
        },
        {
          "indexed": true,
          "name": "to",
          "type": "address"
        },
        {
          "indexed": false,
          "name": "value",
          "type": "uint256"
        },
        {
          "indexed": true,
          "name": "data",
          "type": "bytes"
        }
      ],
      "name": "Transfer",
      "type": "event"
    },
    {
      "constant": true,
      "inputs": [],
      "name": "name",
      "outputs": [
        {
          "name": "_name",
          "type": "string"
        }
      ],
      "payable": false,
      "stateMutability": "view",
      "type": "function"
    },
    {
      "constant": true,
      "inputs": [],
      "name": "symbol",
      "outputs": [
        {
          "name": "_symbol",
          "type": "string"
        }
      ],
      "payable": false,
      "stateMutability": "view",
      "type": "function"
    },
    {
      "constant": true,
      "inputs": [],
      "name": "decimals",
      "outputs": [
        {
          "name": "_decimals",
          "type": "uint8"
        }
      ],
      "payable": false,
      "stateMutability": "view",
      "type": "function"
    },
    {
      "constant": true,
      "inputs": [],
      "name": "totalSupply",
      "outputs": [
        {
          "name": "_totalSupply",
          "type": "uint256"
        }
      ],
      "payable": false,
      "stateMutability": "view",
      "type": "function"
    },
    {
      "constant": false,
      "inputs": [
        {
          "name": "_to",
          "type": "address"
        },
        {
          "name": "_value",
          "type": "uint256"
        }
      ],
      "name": "transfer",
      "outputs": [
        {
          "name": "success",
          "type": "bool"
        }
      ],
      "payable": false,
      "stateMutability": "nonpayable",
      "type": "function"
    },
    {
      "constant": false,
      "inputs": [
        {
          "name": "_to",
          "type": "address"
        },
        {
          "name": "_value",
          "type": "uint256"
        },
        {
          "name": "_data",
          "type": "bytes"
        }
      ],
      "name": "transfer",
      "outputs": [
        {
          "name": "success",
          "type": "bool"
        }
      ],
      "payable": false,
      "stateMutability": "nonpayable",
      "type": "function"
    },
    {
      "constant": false,
      "inputs": [
        {
          "name": "_to",
          "type": "address"
        },
        {
          "name": "_value",
          "type": "uint256"
        },
        {
          "name": "_data",
          "type": "bytes"
        },
        {
          "name": "_custom_fallback",
          "type": "string"
        }
      ],
      "name": "transfer",
      "outputs": [
        {
          "name": "success",
          "type": "bool"
        }
      ],
      "payable": false,
      "stateMutability": "nonpayable",
      "type": "function"
    },
    {
      "constant": true,
      "inputs": [
        {
          "name": "_owner",
          "type": "address"
        }
      ],
      "name": "balanceOf",
      "outputs": [
        {
          "name": "balance",
          "type": "uint256"
        }
      ],
      "payable": false,
      "stateMutability": "view",
      "type": "function"
    }
  ],
  "bytecode": "0x608060405234801561001057600080fd5b50610a49806100206000396000f3006080604052600436106100745763ffffffff60e060020a60003504166306fdde03811461007957806318160ddd14610103578063313ce5671461012a57806370a082311461015557806395d89b4114610176578063a9059cbb1461018b578063be45fd62146101c3578063f6368f8a1461022c575b600080fd5b34801561008557600080fd5b5061008e6102d3565b6040805160208082528351818301528351919283929083019185019080838360005b838110156100c85781810151838201526020016100b0565b50505050905090810190601f1680156100f55780820380516001836020036101000a031916815260200191505b509250505060405180910390f35b34801561010f57600080fd5b50610118610366565b60408051918252519081900360200190f35b34801561013657600080fd5b5061013f61036c565b6040805160ff9092168252519081900360200190f35b34801561016157600080fd5b50610118600160a060020a0360043516610375565b34801561018257600080fd5b5061008e610390565b34801561019757600080fd5b506101af600160a060020a03600435166024356103f1565b604080519115158252519081900360200190f35b3480156101cf57600080fd5b50604080516020600460443581810135601f81018490048402850184019095528484526101af948235600160a060020a03169460248035953695946064949201919081908401838280828437509497506104279650505050505050565b34801561023857600080fd5b50604080516020600460443581810135601f81018490048402850184019095528484526101af948235600160a060020a031694602480359536959460649492019190819084018382808284375050604080516020601f89358b018035918201839004830284018301909452808352979a99988101979196509182019450925082915084018382808284375094975061045b9650505050505050565b60028054604080516020601f600019610100600187161502019094168590049384018190048102820181019092528281526060939092909183018282801561035c5780601f106103315761010080835404028352916020019161035c565b820191906000526020600020905b81548152906001019060200180831161033f57829003601f168201915b5050505050905090565b60055490565b60045460ff1690565b600160a060020a031660009081526001602052604090205490565b60038054604080516020601f600260001961010060018816150201909516949094049384018190048102820181019092528281526060939092909183018282801561035c5780601f106103315761010080835404028352916020019161035c565b600060606103fe846106b8565b156104155761040e8484836106c0565b9150610420565b61040e8484836108d0565b5092915050565b6000610432846106b8565b15610449576104428484846106c0565b9050610454565b6104428484846108d0565b9392505050565b6000610466856106b8565b156106a2578361047533610375565b101561048057600080fd5b336000908152600160205260409020546104a0908563ffffffff6109f816565b3360009081526001602052604080822092909255600160a060020a038716815220546104d2908563ffffffff610a0a16565b600160a060020a038616600081815260016020908152604080832094909455925185519293919286928291908401908083835b602083106105245780518252601f199092019160209182019101610505565b6001836020036101000a038019825116818451168082178552505050505050905001915050604051809103902060e060020a9004903387876040518563ffffffff1660e060020a0281526004018084600160a060020a0316600160a060020a03168152602001838152602001828051906020019080838360005b838110156105b657818101518382015260200161059e565b50505050905090810190601f1680156105e35780820380516001836020036101000a031916815260200191505b50935050505060006040518083038185885af19350505050151561060357fe5b826040518082805190602001908083835b602083106106335780518252601f199092019160209182019101610614565b51815160209384036101000a6000190180199092169116179052604080519290940182900382208a83529351939550600160a060020a038b16945033937fe19260aff97b920c7df27010903aeb9c8d2be5d310a2c67824cf3f15396e4c169350918290030190a45060016106b0565b6106ad8585856108d0565b90505b949350505050565b6000903b1190565b600080836106cd33610375565b10156106d857600080fd5b336000908152600160205260409020546106f8908563ffffffff6109f816565b3360009081526001602052604080822092909255600160a060020a0387168152205461072a908563ffffffff610a0a16565b600160a060020a03861660008181526001602090815260408083209490945592517fc0ee0b8a0000000000000000000000000000000000000000000000000000000081523360048201818152602483018a90526060604484019081528951606485015289518c9850959663c0ee0b8a9693958c958c956084909101928601918190849084905b838110156107c85781810151838201526020016107b0565b50505050905090810190601f1680156107f55780820380516001836020036101000a031916815260200191505b50945050505050600060405180830381600087803b15801561081657600080fd5b505af115801561082a573d6000803e3d6000fd5b50505050826040518082805190602001908083835b6020831061085e5780518252601f19909201916020918201910161083f565b51815160209384036101000a6000190180199092169116179052604080519290940182900382208a83529351939550600160a060020a038b16945033937fe19260aff97b920c7df27010903aeb9c8d2be5d310a2c67824cf3f15396e4c169350918290030190a4506001949350505050565b6000826108dc33610375565b10156108e757600080fd5b33600090815260016020526040902054610907908463ffffffff6109f816565b3360009081526001602052604080822092909255600160a060020a03861681522054610939908463ffffffff610a0a16565b600160a060020a0385166000908152600160209081526040918290209290925551835184928291908401908083835b602083106109875780518252601f199092019160209182019101610968565b51815160209384036101000a6000190180199092169116179052604080519290940182900382208983529351939550600160a060020a038a16945033937fe19260aff97b920c7df27010903aeb9c8d2be5d310a2c67824cf3f15396e4c169350918290030190a45060019392505050565b600082821115610a0457fe5b50900390565b81810182811015610a1757fe5b929150505600a165627a7a72305820759a851eccbe29ebf78b06f526b1e227ddaa922dcdd77c5c5313a700f1d45f950029",
  "source": "pragma solidity ^0.4.24;\n\nimport \"./TokenReceiver.sol\";\nimport \"./ERC223.sol\";\n\nlibrary SafeMath {\n\n    /**\n    * @dev Multiplies two numbers, throws on overflow.\n    */\n    function mul(uint256 a, uint256 b) internal pure returns (uint256 c) {\n        if (a == 0) {\n            return 0;\n        }\n        c = a * b;\n        assert(c / a == b);\n        return c;\n    }\n\n    /**\n    * @dev Integer division of two numbers, truncating the quotient.\n    */\n    function div(uint256 a, uint256 b) internal pure returns (uint256) {\n        // assert(b > 0); // Solidity automatically throws when dividing by 0\n        // uint256 c = a / b;\n        // assert(a == b * c + a % b); // There is no case in which this doesn't hold\n        return a / b;\n    }\n\n    /**\n    * @dev Subtracts two numbers, throws on overflow (i.e. if subtrahend is greater than minuend).\n    */\n    function sub(uint256 a, uint256 b) internal pure returns (uint256) {\n        assert(b <= a);\n        return a - b;\n    }\n\n    /**\n    * @dev Adds two numbers, throws on overflow.\n    */\n    function add(uint256 a, uint256 b) internal pure returns (uint256 c) {\n        c = a + b;\n        assert(c >= a);\n        return c;\n    }\n}\n \ncontract Token is ERC223  {\n    using SafeMath for uint256;\n\n    mapping(address => uint) balances;\n  \n    string public name;\n    string public symbol;\n    uint8 public decimals;\n    uint256 public totalSupply;\n  \n  \n    // Function to access name of token .\n    function name() public view returns (string _name) {\n        return name;\n    }\n    // Function to access symbol of token .\n    function symbol() public view returns (string _symbol) {\n        return symbol;\n    }\n    // Function to access decimals of token .\n    function decimals() public view returns (uint8 _decimals) {\n        return decimals;\n    }\n    // Function to access total supply of tokens .\n    function totalSupply() public view returns (uint256 _totalSupply) {\n        return totalSupply;\n    }\n\n\n    // Function that is called when a user or another contract wants to transfer funds .\n    function transfer(address _to, uint _value, bytes _data) public returns (bool success) {\n        \n        if(isContract(_to)) {\n            return transferToContract(_to, _value, _data);\n        }\n        else {\n            return transferToAddress(_to, _value, _data);\n        }\n    }\n    \n\n    // Function that is called when a user or another contract wants to transfer funds .\n    function transfer(address _to, uint _value, bytes _data, string _custom_fallback) public returns (bool success) {\n        \n        if(isContract(_to)) {\n            if (balanceOf(msg.sender) < _value) revert();\n            balances[msg.sender] = balances[msg.sender].sub(_value);\n            balances[_to] = balances[_to].add(_value);\n            assert(_to.call.value(0)(bytes4(keccak256(_custom_fallback)), msg.sender, _value, _data));\n            emit Transfer(msg.sender, _to, _value, _data);\n            return true;\n        }\n        else {\n            return transferToAddress(_to, _value, _data);\n        }\n    }    \n\n\n    // Standard function transfer similar to ERC20 transfer with no _data .\n    // Added due to backwards compatibility reasons .\n    function transfer(address _to, uint _value) public returns (bool success) {\n        //standard function transfer similar to ERC20 transfer with no _data\n        //added due to backwards compatibility reasons\n        bytes memory empty;\n        if(isContract(_to)) {\n            return transferToContract(_to, _value, empty);\n        }\n        else {\n            return transferToAddress(_to, _value, empty);\n        }\n        return true;\n    }\n\n\n    //assemble the given address bytecode. If bytecode exists then the _addr is a contract.\n    function isContract(address _addr) private view returns (bool is_contract) {\n        uint length;\n        assembly {\n            //retrieve the size of the code on target address, this needs assembly\n            length := extcodesize(_addr)\n        }\n        return (length>0);\n    }\n\n    //function that is called when transaction target is an address\n    function transferToAddress(address _to, uint _value, bytes _data) private returns (bool success) {\n        if (balanceOf(msg.sender) < _value) revert();\n        balances[msg.sender] = balances[msg.sender].sub(_value);\n        balances[_to] = balances[_to].add(_value);\n        emit Transfer(msg.sender, _to, _value, _data);\n        return true;\n    }\n    \n    //function that is called when transaction target is a contract\n    function transferToContract(address _to, uint _value, bytes _data) private returns (bool success) {\n        if (balanceOf(msg.sender) < _value) revert();\n        balances[msg.sender] = balances[msg.sender].sub(_value);\n        balances[_to] = balances[_to].add(_value);\n        TokenReceiver receiver = TokenReceiver(_to);\n        receiver.tokenFallback(msg.sender, _value, _data);\n        emit Transfer(msg.sender, _to, _value, _data);\n        return true;\n    }\n\n\n    function balanceOf(address _owner) public view returns (uint balance) {\n        return balances[_owner];\n    }\n}",
  "sourcePath": "/Users/juliusbrain/go/src/github.com/kowala-tech/kcoin/client/contracts/token/contracts/Token.sol",
  "compiler": {
    "name": "solc",
    "version": "0.4.24+commit.e67f0147.Emscripten.clang"
  },
  "schemaVersion": "2.0.0",
  "updatedAt": "2018-07-02T16:29:06.266Z"
}